:020000040000FA
:0400000080314128E2
:1000060008007E1480314E01961A8C1E0E289631F9
:10001600112680313F280B1F3F2899188F1C17285F
:100026009531412580313F2819180F1C1E288E3125
:10003600B22680313F28191A0F1E2828420153087C
:100046008A0052080A0080313F28991A8F1E3A28E2
:10005600420151088A0050080A00803195315A251C
:10006600803177084101BC007608BB003F2897180D
:100076008D1C3F28963104267E10090080314328C6
:10008600603084009530850041011200E6001200C0
:10009600E7001200E8001200E9001200EA00120070
:1000A600EB00EF308400253085000130FE00023081
:1000B600FF009531F8258031F001F101F201F301DD
:1000C600F401F501A0308400003085003130FE00D7
:1000D6000030FF009531F825803120308400013052
:1000E60085002830FE000030FF009531F82580316C
:1000F600A0308400013085002030FE000030FF0073
:100106009531F8257E1040018531B02D40014B0810
:100116008039D0005008D5004B35D0005008DB00A0
:10012600CA1B5B145B080319A5285B0A031DA328D9
:100136000030CB000030CA000030C9000030C800D3
:10014600CA17AD280030CB000030CA000030C90005
:100156000030C8004F088039D0005008D5064F350A
:10016600D0005008D600CE1B561456080319C828CE
:10017600560A031DC6280030CF000030CE000030DE
:10018600CD000030CC00CE17D0280030CF00003094
:10019600CE000030CD000030CC005608031D5B08B1
:1001A600031DDE280030CB000030CA000030C90035
:1001B6000030C80008004808D0005008A0004E08CB
:1001C60097317627803140012108E1002008E000C0
:1001D6006008D000D101D201D3015308DA005208D9
:1001E600D9005108D8005008D7006108D000D101C5
:1001F600D201D3015308DF005208DE005108DD00AA
:100206005008DC004908D0005008A0004D0897317E
:100216007627803140012108E1002008E0006008CF
:10022600D000D101D201D3015008D7075108D83DDB
:100236005208D93D5308DA3D6108D000D101D201F8
:10024600D3015008DC075108DD3D5208DE3D530856
:10025600DF3D4A08D0005008A0004C0897317627A9
:10026600803140012108E1002008E0006008D0004C
:10027600D101D201D3015008D7075108D83D520801
:10028600D93D5308DA3D6108D000D101D201D3012E
:100296005008DC075108DD3D5208DE3D5308DF3DBE
:1002A6000830D735D80DD90DDA0D890B54294908F0
:1002B600D0005008A0004C089731762780314001C5
:1002C6002108E1002008E0006008D7076108D83D52
:1002D6000030D93DDA3D4808D0005008A0004D084E
:1002E60097317627803140012108E1002008E0009F
:1002F6006008D7076108D83D0030D93DDA3D08309F
:10030600D735D80DD90DDA0D890B83294808D000C9
:100316005008A0004C08973176278031400121080B
:10032600E1002008E0006008D7076108D83D0030EA
:10033600D93DDA3D4908D0005008A0004E08973153
:100346007627803140012108E1002008E00060089E
:10035600DC076108DD3D0030DE3DDF3D4A08D000A8
:100366005008A0004D0897317627803140012108BA
:10037600E1002008E0006008DC076108DD3D003090
:10038600DE3DDF3D4A08D0005008A0004E089731F8
:100396007627803140012108E1002008E00060084E
:1003A600D0006108D100D201D3010830D035D10D7B
:1003B600D20DD30D890BD9295008DC075108DD3D34
:1003C6005208DE3D5308DF3D5708D0005808D100DB
:1003D6005908D2005A08D3001830D336D20CD10CA3
:1003E600D00C890BF0295008DC075108DD3D520876
:1003F600DE3D5308DF3D0830D735D80DD90DDA0D6F
:10040600890BFF295B085607D000D101D10D500892
:10041600823EE000FF30513DE100DE1B272A01301D
:10042600DC35DD0DDE0DDF0D890B132ADA1B5C14BE
:100436000130D735D80DD90DDA0D890B1C2AFF30BE
:10044600E007FF30E13D102AD601DA1F402AFF30CF
:100456005705D000FF305805D100FF305905D200AE
:100466007F305A05D300530852045104500403192F
:100476005C183E2A402AD601D60A56080319692A6C
:100486000130DC070030DD3D0030DE3D0030DF3D71
:100496005F1C692A5C08D0005D08D1005E08D200A6
:1004A6005F08D3000130D400D337D20CD10CD00C66
:1004B600D40B572A5308DF005208DE005108DD002E
:1004C6005008DC000130E0070030E13D6108803A69
:1004D600D00080305002031D722AFF306002031CD8
:1004E6007E2A7F304001DF008030DE000030DD00F4
:1004F6000030DC00A82A40016108803AD000803034
:100506005002031D882A013060020318952A003024
:100516004001DF000030DE000030DD000030DC008E
:10052600D501A82A40016008D0005008DB00FF3042
:10053600DC05FF30DD057F30DE050030DF055B18AA
:10054600DE175B36D0005008DF005508D000500893
:10055600DF045F08CB005E08CA005D08C9005C08BE
:10056600C80008004101D6005608D100D201D301C7
:10057600D40154084001A300410153084001A200E0
:10058600410152084001A100410151084001A0006B
:1005960000308B31A323823140012308B5002208A5
:1005A600B4002108B3002008B2004530B100003085
:1005B600B0000030AF000030AE0084313624823106
:1005C60040013108CF003008CE002F08CD002E089C
:1005D600CC004430CB008030CA000030C900003067
:1005E600C80080318920823140014B08E5004A0865
:1005F600E4004908E3004808E2008B313D238231DC
:10060600400162084101D5005508D60040016D0839
:100616004101D100D201D301D40154084001A30005
:10062600410153084001A200410152084001A100C6
:10063600410151084001A00000308B31A3238231D3
:1006460040012308B5002208B4002108B3002008A1
:10065600B2004530B1000030B0000030AF000030CD
:10066600AE0084313624823140013108CF00300893
:10067600CE002F08CD002E08CC004430CB008030B1
:10068600CA000030C9000030C8008031892082319C
:1006960040014B08E5004A08E4004908E300480821
:1006A600E2008B313D238231400162084101D500D1
:1006B60055084001ED006E084101D100D201D30179
:1006C600D40154084001A300410153084001A2008F
:1006D600410152084001A100410151084001A0001A
:1006E60000308B31A323823140012308B500220854
:1006F600B4002108B3002008B2004530B100003034
:10070600B0000030AF000030AE00843136248231B4
:1007160040013108CF003008CE002F08CD002E084A
:10072600CC004430CB008030CA000030C900003015
:10073600C80080318920823140014B08E5004A0813
:10074600E4004908E3004808E2008B313D2382318A
:10075600400162084101D50055084001EE006F08CE
:100766004101D100D201D301D40154084001A300B4
:10077600410153084001A200410152084001A10075
:10078600410151084001A00000308B31A323823182
:1007960040012308B5002208B4002108B300200850
:1007A600B2004530B1000030B0000030AF0000307C
:1007B600AE0084313624823140013108CF00300842
:1007C600CE002F08CD002E08CC004430CB00803060
:1007D600CA000030C9000030C8008031892082314B
:1007E60040014B08E5004A08E4004908E3004808D0
:1007F600E2008B313D238231400162084101D50080
:1008060055084001EF0041015608D100D2015108B8
:1008160046018C004101520846018D0040016D08D9
:100826004101D100D2015108460190004101520810
:100836004601910040016E084101D100D2015108E4
:1008460046019400410152084601950040016F0897
:100856004101D100D20151084601980041015208D8
:10086600460199000800400135088039B60036086F
:10087600BF003535B6003608C600B41B4614460818
:100886000319532C460A031D502C0030B5000030C6
:10089600B4000030B3000030B200B417B5015B2CD1
:1008A6000030B5000030B4000030B3000030B200B4
:1008B60031088039B6003608BF063135B60036082D
:1008C600C700B01B471447080319772C470A031DB6
:1008D600742C0030B1000030B0000030AF000030A2
:1008E600AE00B017B1017F2C0030B1000030B0006F
:1008F6000030AF000030AE00310830042F042E0463
:10090600031D9E2C0030B5000030B4000030B3004B
:100916000030B2008030B4047F30B5043F08B60022
:100926003608B5043508B1003408B0003308AF0006
:100936003208AE0008004608031DAA2C0030B1009C
:100946000030B0000030AF000030AE0008004608AE
:10095600B600B7013708B90047083602B800031CCD
:10096600B90338087F3EC0000030393DC100350864
:10097600BE003408BD003308BC003208BB0000309E
:10098600B5000030B4000030B3000030B2000030D3
:10099600C5000030C4000030C3000030C200C701EB
:1009A6001A30470203180F2D47080319F12C01309E
:1009B600BB35BC0DBD0DBE0D890BDB2C0130B23530
:1009C600B30DB40DB50D890BE22CC51B32140130E5
:1009D600C235C30DC40DC50D890BEB2C31083E0283
:1009E600031DFF2C30083D02031DFF2C2F083C027F
:1009F600031DFF2C2E083B02031C0A2D45172E084B
:100A0600BB022F08BC3B3008BD3B3108BE3B013062
:100A1600B6003608C707D32C3E083D043C043B0409
:100A2600031D4214B41B2C2D0130B235B30DB40D89
:100A3600B50D890B182DC51B32140130C235C30DF7
:100A4600C40DC50D890B212DFF30C007FF30C13DF8
:100A5600152DC701C51F452DFF304205B600FF30D5
:100A66004305B700FF304405B8007F304505B9009F
:100A7600390838043704360403193218432D452D36
:100A8600C701C70A470803196E2D0130B2070030A7
:100A9600B33D0030B43D0030B53D351C6E2D3208F7
:100AA600B6003308B7003408B8003508B90001307D
:100AB600BA00B937B80CB70CB60CBA0B5C2D3908AE
:100AC600B5003808B4003708B3003608B200013064
:100AD600C0070030C13D4108803AB600803036027A
:100AE600031D772DFF304002031C862DFF30400189
:100AF600C0000030C1000030B5000030B400003046
:100B0600B3000030B20040014108803AB6008030A0
:100B16003602031D902D0130400203189E2D400120
:100B2600C001C1010030B5000030B4000030B30090
:100B36000030B200BF0140014008B6003608C600CA
:100B4600461CA72DB417AB2D7F30B6003608B4056A
:100B56004636B6003608B500912C96317526853195
:100B660041304101D700EE30890BB72DD70BB72D99
:100B760000009531DA2585319531662585318A3132
:100B86003B2285319531ED25853196312D268531EE
:100B960088311C20853196318A268531102EF03019
:100BA600D7002530D8006A08570786006B08583DDD
:100BB60087000108D90059084001ED00F1304101D4
:100BC600DA002530DB006A085A0786006B085B3DB1
:100BD60087000108DC005C084001EE00F2304101AC
:100BE600DD002530DE006A085D0786006B085E3D85
:100BF60087000108DF005F084001EF00EF30410188
:100C0600E0002530E1006A08600786006B08613D58
:100C1600870001088231B522853187310227853167
:100C26008A31D82285318C31D824853141016B082F
:100C36004001BB0041016A084001BA008D31A92577
:100C4600853195319225853141013B0840012002CD
:100C56004101D7003C084001213B4101D80000304A
:100C66005802333003195702031CD22D95319225B1
:100C7600853141013B08400120024101D7003C0873
:100C86004001213B4101D80000305802333003199E
:100C96005702031C102E95319225853140012108FB
:100CA6004101E300400120084101E20033086202ED
:100CB600D7003408633BD80000305802643003196B
:100CC6005702031C102E6308B4006208B300953166
:100CD6006E258531003A0319102E0A304001C300F3
:100CE6000030C4008C313924853140013A08C600F1
:100CF6003908C5008931AD218531400144084101DB
:100D0600E500400143084101E40064086504031D51
:100D16008F2E4001ED01982E64036504031D9A2E63
:100D2600C830D70057084001ED00EE01EF2E023023
:100D360064066504031DA82EC830D7005708400175
:100D4600ED00EE01EF0146300D2E0330640665041A
:100D5600031DB42EC830D70057084001ED00EE0140
:100D6600D02E043064066504031DC32EC830D70098
:100D760057084001ED00C8304101D8005808CE2E72
:100D8600053064066504031DD22E4001ED01C8300E
:100D96004101D70057084001EE00EF01002F063051
:100DA60064066504031DE22E4001ED01C8304101D1
:100DB600D70057084001EE00EF010E300D2E073028
:100DC60064066504031DF22E4001ED01C8304101A1
:100DD600D70057084001EE00EF01C8300D2E08304D
:100DE60064066504031D102E4001ED01EE01FA3084
:100DF6004101D70057084001EF0000300D2E953114
:100E06009225873140012108A7002008A60041014C
:100E16002D0840012602A20041012E084001273B71
:100E2600A300003023020A3003192202031C080023
:100E360027084101AE00400126084101AD004001EE
:100E4600A5012508A2000230A235FF3E031D272F6B
:100E56002235A03EA3002308A800280886000130FA
:100E66008700403FA200413FA300220886002308D6
:100E760087000130A4002808023E84000130850066
:100E8600000A462FA435890B452F24080105031DAA
:100E9600542F2808033E8600013087008101810A0D
:100EA6005A2F2808033E8600013087008101280852
:100EB600033E8600013087000103031D732F2808B7
:100EC600043E8600013087000108031D732F2808A1
:100ED600063E8600013087002608C03F2708C13F2E
:100EE6002808033E8600013087000108031D9C2F59
:100EF6002808043E8600013087000103031D9C2F4D
:100F06002808063E860001308700403F2602A200E0
:100F1600413F273BA30003302302E9300319220295
:100F260003189C2F2808053E8600013087008101A2
:100F3600810A2808033E8600013087000108031D48
:100F4600C42F2808043E8600013087000103031DD4
:100F5600C42F2808063E860001308700403F26023F
:100F6600A200413F273BA30003302302E9300319C7
:100F76002202031CC42F2808053E86000130870084
:100F860081012808033E8600013087000103031D06
:100F9600E72F2808063E860001308700403F2602DC
:100FA600A200413F273BA30003302302E930031987
:100FB6002202031CE72F0230A2002808053E860005
:100FC60001308700220881002808033E8600013090
:100FD60087000108A2002808043E86000130870029
:100FE600220881000130A2002208A507043025024C
:100FF60003180800242F08000800CE304001A00086
:1010060020084101A100CE304001A0002008410186
:10101600A000A2142210A40143018F0128309000E1
:10102600920118308D004E010F108F10191499146B
:10103600080009307E01A7000A30A6000B30A30085
:101046000C30A40046010E08F0390C388E008E17BD
:101056001208F0390C38920092171608F0390C383D
:10106600960096171A08F0390C389A009A1701302C
:10107600450190008E174001941314139411141215
:1010860008004001AD0041012218672840012D08E3
:10109600AB002B08A0002708AC002C08A1002908EB
:1010A600A3002808A20044309731B727883144307E
:1010B6004001AB002B08A0002A08AC002C08A100B8
:1010C60001308A318622080040012A0886008701FD
:1010D6008101810A0800400128082904031996287D
:1010E600AD01AD0AA91B81280130A835A90D890BD0
:1010F60078280130AC002C08AD07752829082B028A
:10110600031D872828082A02031C8D282808AA02FE
:101116002908AB3B0130A936A80C890B8E28013073
:10112600AD02031D81282B08A9002A08A800080083
:101136004001980199019A013F3092009030930046
:10114600FF309400F8307E01CE00E030C30003305B
:10115600B800C4010430B9000730CF00BA01C50198
:10116600D0013730BB00F030C600FF30D10005306B
:101176007D01C50014307E0194000F309E001330AF
:10118600950004307D01C6000C30CB0008007108C4
:10119600203E860001308700810142011D1DDE28A8
:1011A6007108203E86000130870081144F088A00AE
:1011B6004E080A00883142019D1CEC287108203E29
:1011C60086000130870001154D088A004C080A0088
:1011D60088317108203E8600013087000108031916
:1011E600FB2842014B088A004A080A008831080099
:1011F6009631A126080040019A1642019D1C052938
:101206001D121D161908F6007608FA001D1D0F2975
:101216004101B101B201302941013208803AF6009C
:1012260082307602031D1929023031020318302953
:10123600EF30F6002530F700410131087607F80057
:101246003208773DF90078088600790887007A0821
:1012560081000130B1070030B23D40019A1208000A
:101266004001A601A7012008210403196329A5014D
:10127600A50AA11B48290130A035A10D890B3F29DC
:101286000130A4002408A5073C290130A635A70D86
:10129600890B492921082302031D5329200822020C
:1012A600031C5A292008A2022108A33B2614013058
:1012B600A136A00C890B5B290130A502031D482924
:1012C6002708A1002608A00008004E019912CA307E
:1012D6004001A0000830A1009531A42589314E01B6
:1012E60019121A304001A0001730A1009531C82507
:1012F6008931083042019F0090309D0004309E00E5
:101306001F309B009C01FF304001A0000730A10068
:101316009531B62589314B304001A0001530A1002A
:101326009531BF2589313E304001A0001530A1001E
:101336009531AD254101CC01F301F20108304001A0
:10134600A20022084101EE00F101F001CD014E019B
:10135600991608004001C901C61FB829C509C60962
:10136600C50A0319C60AC901C90AC41FBF29C30988
:10137600C409C30A0319C40A430844040319E62925
:10138600C801C80AC41BD1290130C335C40D890B55
:10139600C8290130C7004708C807C52944084602BE
:1013A600031DD72943084502031CDD294308C5024E
:1013B6004408C63B0130C436C30C890BDE29013014
:1013C600C802031DD12949080319EE29C509C60912
:1013D600C50A0319C60A4608C4004508C300080022
:1013E600313086000030870008304001B000003000
:1013F6001E00B00BFB29201C102A2808B10729085B
:10140600B23D2A08B33D2B08B43D2C08B53D2D0846
:10141600B63D2E08B73D2F08B83DA835A90DAA0D33
:10142600AB0DAC0DAD0DAE0DAF0DA736A60CA50CD4
:10143600A40CA30CA20CA10CA00C200821042204CD
:1014460023042404250426042704031DFE29310849
:10145600A0003208A1003308A2003408A300350812
:10146600A4003608A5003708A6003808A70008001B
:10147600A0304001A50025084101C100A830400167
:10148600A50025084101C400B0304001A50025088B
:101496004101C300B8304001A50025084101C20042
:1014A6000E304001A0000030A1000230A500250842
:1014B600A20041014108973156278A310C3040017C
:1014C600A0000030A1000230A5002508A2004101BD
:1014D6004208973156278A310E304001A00000306D
:1014E600A100A20141014308973156278A310E30E7
:1014F6004001A0000030A100A201A20A4101440857
:101506009731562708004001A30041012218C52A39
:1015160002304001A20021088600870122088100CE
:101526002008A2004101200A860087014001220806
:1015360081002308A200410120088600870140019E
:10154600220881002108A20041012008023E8600EF
:1015560087014001220881000330A20022084101D0
:10156600A0072008D13A031DBE2ACE304001A200B2
:1015760022084101A000A21021082006031DCB2A43
:101586002214CB2A40012108860087018101810AA5
:10159600400121088600870102300106031D08006C
:1015A60095314F254E010F1408004001BF01BF0AB7
:1015B6004101440896314D268A31003A0319E72A3B
:1015C600973101278A31052B4101430896314D2673
:1015D6008A31003A0319F32A9631E9268A31052B16
:1015E6004101440896311E268A31003A031DE32A3A
:1015F6004101430896311E268A31003A031DEF2A1F
:101606004001BF0140013F080319182B01309631F4
:10161600D1268A31953192258A314001210841012E
:10162600B600400120084101B500953192258A3166
:101636004101350840012002BD0041013608400144
:10164600213BBE0013303E02883003193D02031CC5
:10165600080000309631D1268A3195319225400115
:101666002008773E4101B500EC304001213D4101A3
:10167600B600080003104001640D650DE60066081B
:10168600EC006C08031D502B0030E5000030E40030
:101696000030E3000030E20008006208E60063085C
:1016A600E7006408E8006508E9001F30E936E80C41
:1016B600E70CE60C890B592B6608EA006A08EB0072
:1016C600E417FF30E205FF30E305FF30E4050030A4
:1016D600E5059630EC02EC1F832B6C08803A973EAA
:1016E600031C472B0130E536E40CE30CE20C890BB6
:1016F600762B0130E6006608EC070319942B752B50
:1017060020306C020318472B6C080319942B013008
:10171600E235E30DE40DE50D890B8B2B0130EC0270
:10172600872B6B0803190800E209E309E409E509B8
:10173600E20A0319E30A0319E40A0319E50A080091
:101746004001A8002808031DA31FB92B2009AA00E1
:101756002109AB002209AC002309AD00AA0A03192E
:10176600AB0A0319AC0A0319AD0AC12B2308AD0055
:101776002208AC002108AB002008AA002308220496
:1017860021042004031DD02B0030A3000030A2004A
:101796000030A1000030A00008009630A400240804
:1017A600A900FE302D050319F72B0130A4002408EB
:1017B600A9070130AD36AC0CAB0CAA0C890BDD2B9E
:1017C600D42B0130A4002408A9070130AA07003051
:1017D600AB3D0030AC3D0030AD3D0130AD36AC0C1C
:1017E600AB0CAA0C890BF12BFF302D050319092C24
:1017F600E42B02302902031C0B2C0130A902013014
:10180600AA35AB0DAC0DAD0D890B032CAC1FFC2B13
:101816002918152CFF30AA05FF30AB057F30AC0523
:10182600FF30AD050310A90C2908A400A501A601E7
:10183600A7011830A435A50DA60DA70D890B1D2CE3
:101846002408AA042508AB042608AC042708AD041E
:101856002808031DA31F302CAD172D08A3002C0844
:10186600A2002B08A1002A08A000080001304001B0
:10187600BB000030BC000030BD000030BE000030B0
:10188600BF000030C0000030C1000030C20042017D
:1018960038084001A000420139084001A100420178
:1018A6003A084001A20042013B084001A300420160
:1018B6003C084001A40042013D084001A500420148
:1018C6003E084001A60042013F084001A7005830EB
:1018D600AF005130AE00F430AD002D30AC004C30CE
:1018E600AB009530AA007F30A9002D30A8008931C1
:1018F600F3218C3140012030860000308700403FC4
:10190600BB07413FBC3D423FBD3D433FBE3D443F1B
:10191600BF3D453FC03D463FC13D473FC23D4208F2
:101926004201BF00400141084201BE00400140089B
:101936004201BD0040013F084201BC0040013E0893
:101946004201BB0040013D084201BA0040013C088B
:101956004201B90040013B084201B8003830860018
:1019660001308700403F4001BB00413FBC00423F81
:10197600BD00433FBE00443FBF00453FC000463F59
:10198600C100473FC20007304001C236C10CC00C3F
:10199600BF0CBE0CBD0CBC0CBB0C890BC72C40018C
:1019A6003C08BA003B08B9000800953144258C3143
:1019B600003A031D0800953192258C314101270814
:1019C60040012002A800410128084001213BA9004E
:1019D6004101670840012902031DF52C41016608F3
:1019E60040012802031C0800953192258C314001E4
:1019F60021084101A800400120084101A7003E033B
:101A0600031D0A2D0130A5070030A63D102DA501A6
:101A1600A6011430E6000030E7003E03031D552DF5
:101A26003D08031D552DBF01BF0A6430E600003096
:101A3600E700953192258C3141012B0840012002A7
:101A4600AA0041012C084001213BAB0095319225AB
:101A56008C31400121084101AC00400120084101C0
:101A6600AB00003040012B02963003192A020318FE
:101A7600422D90304101A9000130AA00552D2B08B6
:101A8600A1002A08A0006030A200EA30A300893134
:101A960033218C31400121084101AA004001200870
:101AA6004101A9003E084001A80028084101BD00E7
:101AB600BE012608803A4001A80080302802031D96
:101AC600672D043041012502031C862D013041019A
:101AD600E8070030E93D69084001A10041016808B6
:101AE6004001A000953180258C314101A501A60158
:101AF60095319225400121084101AC0040012008A2
:101B06004101AB000800953192258C3141012B082B
:101B160040012002A80041012C084001213BA900F8
:101B260003302902E93003192802031C080001309A
:101B36004101E8020030E93B69084001A10041018A
:101B460068084001A000953180250800003040015A
:101B56003B020A3003193A020318D12D2030BC008B
:101B66003C08B500B6010030973138278D3120305A
:101B76004001BC003C08B500B6010130973138275A
:101B86008D3120304001BC003C08B500B601023062
:101B9600973138278D3140013A087F2E00303B02BD
:101BA6000A3003193A02031CEB2D00303B02643065
:101BB60003193A020318EB2D2030BC003C08B5008F
:101BC600B6010030973138278D3120304001462E3E
:101BD60000303B02643003193A02031CFB2D03302C
:101BE6003B02E83003193A020318FB2D2030232E5E
:101BF60003303B02E83003193A02031C812E2730DA
:101C06003B02103003193A020318812E0A30A8004D
:101C16000030A900E830A0000330A1003B08A30073
:101C26003A08A200893133218D3140012108AB00E9
:101C36002008AA0088316E208D3140012808303EE8
:101C4600BC003C08B500B6010030973138278D310D
:101C56000A304001A8000030A9006430A00000301E
:101C6600A1003B08A3003A08A200893133218D3137
:101C760040012108AB002008AA0088316E208D3172
:101C860040012808303EBC003C08B500B6010130D2
:101C9600973138278D310A304001A8000030A9005D
:101CA6000A30A0000030A1003B08A3003A08A200B9
:101CB600893133218D3140012108AB002008AA006B
:101CC60088316E208D3140012808303EBC003C082A
:101CD600B500B6010230973138278D310A30400100
:101CE600A8000030A9003B08AB003A08AA008831DA
:101CF6006E208D3140012808303EA02E4530BC00B4
:101D06003C08B500B6010030973138278D31723066
:101D16004001BC003C08B500B601013097313827B8
:101D26008D3172304001BC003C08B500B60102306E
:101D3600973138278D3120304001BC003C08B50072
:101D4600B6010330973138278D3168304001BC0029
:101D5600E430890BAC2EBC0BAC2E000008004E0103
:101D66000F104301901FD32F90134101CB01480858
:101D7600023E860087010108860087018101810AEB
:101D8600C8010800A21808002108F8007808C80051
:101D96002108860087010108F8007808CA00210892
:101DA60086008701413FC9000330F8007808A10783
:101DB6002108D13A031DE32ECE30F8007808A100A1
:101DC6002210210820060319A2144301111402301F
:101DD600F80078084101CB0008007C2F4301111F51
:101DE600FD2E0130F80078084101A4070430963131
:101DF600B92608007508F9007408F800F936F80CD9
:101E060078088C00741C0D2F0B30F80078084101FF
:101E1600CB0008000330F80078084101CB00080029
:101E26004301111F1F2F0130F80078084101A40754
:101E360004309631B926080091147508F900740823
:101E4600F8007908F800F90106307805FA00003044
:101E56007905FB00F0307A04F40000307B04F500CD
:101E660074144101C501C50AEA2E45030319512F11
:101E76004908860001308700403FF400413FF500E5
:101E860049088600013087000130433FC7004908F2
:101E96008600013087000130423FC60074084301C6
:101EA6008C00741C0D2F0530F80078084101CB001A
:101EB60008004301111F6A2F0130F800780841011C
:101EC600A4074301111305309631B92608000130E5
:101ED6004101C602460A031D7F2F0430F800780828
:101EE600C9070130CA02031D7C2F00309631B9267E
:101EF600080043019114EA2E47088600870101086D
:101F060043018C000130F80078084101C70708003A
:101F16004301111F992F0130F80078084101A407E9
:101F260004309631B9264301111308009115083083
:101F3600F80078084101CB0008000830F80078085E
:101F4600CB0043019115080043010C08F80041013C
:101F5600470886008701780881000130F800780874
:101F6600C7070130C6020319C02F4301911206307C
:101F7600F80078084101CB00C42F43019116963131
:101F86003C2643011116080000309631B926080098
:101F96000130F8007808A40706309631B926080003
:101FA60041014B08F800F9017908003A0319DC2FC2
:101FB600CB2F7808003A0319C52E013A0319F02EE3
:101FC600033A0319382F013A03195C2F073A03190C
:101FD600C72F013A03198B2F033A0319A02F013A91
:101FE6000319C72F0F3A0319A72F023A0319F12E27
:101FF600013A0319132FCB2F080000348234213401
:102006000034003400340034023439340F340034E0
:10201600003400344034803400343F3406345B34BA
:102026004F3466346D347D3407347F346F34003476
:1020360000340034483400345334003477347C346C
:1020460039345E34793471346F34763406341E3460
:1020560000343834003454343F34733467345034E5
:102066006D3478343E340034003400346E34003439
:10207600393400340F340034083463345F347C342C
:1020860058345E347B3471346F34743402341E3405
:1020960000340634003454345C34733467345034BA
:1020A6006D3478341C340034003400346E3400341B
:0A20B600393430340F3400340034A4
:102A7C009631A12608004E018F1008004101400834
:102A8C0008004101BE01BE0A080042011D121D16BC
:102A9C00080041014B08031908004F2D013041017A
:102AAC00AF070030B03D080041013008F7002F0897
:102ABC00F60008000A340034903406340134003433
:102ACC0054304001A0001530A10095319B25080021
:102ADC0041013F080319752DBF010130080000307A
:102AEC000800400121084101ED004001200841018E
:102AFC00EC0008004001210841018F004001200832
:102B0C0041018E0008004001A000200841019F00F7
:102B1C004201911711140800410130084001A10035
:102B2C0041012F084001A00008004001210842018A
:102B3C00C900400120084201C800080040012108DA
:102B4C004201D100400120084201D00008004001A0
:102B5C0021084201CB00400120084201CA000800B4
:102B6C00400121084201CF00400120084201CE0063
:102B7C000800400121084201CD004001200842011B
:102B8C00CC000800400121084201D300400120087C
:102B9C004201D2000800603051018D008F0191017B
:102BAC0006309300920108009631752695318B17EB
:102BBC000B1701309631D12608004F019601970171
:102BCC00980199019A019B019C019D01080041010A
:102BDC006B084001BB0041016A084001BA008D310D
:102BEC00A92508006400800101310130FE0200308B
:102BFC00FF3B7F087E0403190034F92D4E018D1024
:102C0C0041016C086D04031908006D088A006C08FA
:102C1C000A00963108004E018C1242014808490402
:102C2C000319080049088A0048080A009631080070
:102C3C004001A0002008053E8600013087000230CC
:102C4C000106031D2B2E0130080000300800FE3059
:102C5C004001A0000830A1009531A42540011316B5
:102C6C007E01C3014101B101B20108000430F6003C
:102C7C0076084101C9070130CA02031D4A2E0430EF
:102C8C00F6007608CB000800CB01CB0A0800400107
:102C9C00A0002008053E8600013087000103031DBB
:102CAC005F2E2008053E860001308700810101302F
:102CBC0008000030080046304B019F007C309D001E
:102CCC009C014E018C129616FE304001A00007307C
:102CDC00A10095319B2580304B019E000800953159
:102CEC00E325963188319B2096319531D12596314B
:102CFC008831002096319731DA279631963161264A
:102D0C009631893168210800410169084001A10010
:102D1C00410168084001A00095318025963147306B
:102D2C004001A0001530A1009531772596310F3068
:102D3C0095318925080042011908F6007108283ED2
:102D4C00860001308700760881000130F600760895
:102D5C00F107083071020318F1010130F600760812
:102D6C004101CD070800F700430111154101480846
:102D7C00023E8600870101080319CF2E7708F60062
:102D8C004808023E86008701010886008701760804
:102D9C008100CB0108004001B50035080319DF2E76
:102DAC00AE01AE0A2430973196274101C001C00A0A
:102DBC0008003508031D0800AE0124309731962712
:102DCC004101C001080041016A036B04031DF32E8D
:102DDC000030EA000230EB00F72E0130EA0200303E
:102DEC00EB3B6B084001BB0041016A084001BA0093
:102DFC008D31A9250800023041016B066A04031DC0
:102E0C000C2F0130EA000030EB00102F0130EA07E4
:102E1C000030EB3D6B084001BB0041016A084001EA
:102E2C00BA008D31A9250800083041016E02031843
:102E3C00352F7208303E86000130870001084201B0
:102E4C009A000130F6007608F20708307202031877
:102E5C00F2010130F60076084101EE0708004E0140
:102E6C00191208004001B8003508E03E84008F308C
:102E7C000318013E85000008B7003708B900360872
:102E8C0003194D2F39088038B7003708B9003908B5
:102E9C00B7003708AE003808343E97319627080043
:102EAC004001A40024088600013087002008C03FA0
:102EBC002108C13F2208A3002408023E86000130ED
:102ECC008700230881002408033E86000130870018
:102EDC0081012408053E860001308700810108002D
:102EEC004001A800A401A5012008A200A30122080A
:102EFC00A6002308A700281C872F2608A40727084C
:102F0C00A53D0130A635A70D890B882F0310A80C01
:102F1C002808031D812F2508A1002408A000080003
:102F2C004001B2000230AF002F08B4002E08AF00F1
:102F3C002F08B300A701A70A3208AF00B0012F0871
:102F4C00A8003008A9003430B1003108AA00333091
:102F5C00883144209731023040013406031D0800AB
:102F6C00B12F4001A6002308A5002208A400A43517
:102F7C00A50D26088600013087002408C03F2508CF
:102F8C00C13F2108A4002608023E860001308700BC
:102F9C00240881002008A4002608033E8600013086
:102FAC00870024088100080041018C018D018E01ED
:102FBC008F019201930198019A019F0142018C01AA
:102FCC008D018E018F019001920154309300563087
:102FDC0094009501960197019801D43091004E010F
:102FEC008D10971403304001A0000030A1009531E2
:042FFC00772508002D
:020000040001F9
:02000E00FC3FB5
:020012009F3F0E
:00000001FF
